:020000040800F2
:1000000008280020CD000008B52600083D2600087D
:1000100000000000000000000000000000000000E0
:10002000000000000000000000000000952A000809
:100030000000000000000000B7260008972A000812
:10004000DF00000800000000DF000008DF000008FB
:10005000DF000008DF000008DF000008DF00000804
:1000600000000000DF000008DF000008DF000008DB
:10007000DF000008DF000008DF00000800000000CB
:10008000DF0000085D2B00086D2B00081D2B000809
:10009000DF0000084D2B0008DF000008DF0000082B
:1000A000DF000008DF000008DF00000861390008F9
:1000B00071390008813900080348854600F04CFB7F
:1000C00000480047454300080828002004488047AE
:1000D00004480047FEE7FEE7FEE7FEE7FEE7FEE72F
:1000E000192B0008B900000830B50B460146002066
:1000F0002022012409E00D46D5409D4205D31D462E
:100100009540491B2546954040191546521E002D25
:10011000F1DC30BD03460B439B0703D009E008C95F
:10012000121F08C0042AFAD203E00B780370401CA7
:10013000491C521EF9D27047D2B201E00270401C35
:10014000491EFBD270470022F6E710B513460A4657
:1001500004461946FFF7F0FF204610BD70B5024671
:100160004A40D50F40004A00ED07400852080028D9
:1001700014D0002A12D0C40DD30D41020120C005B5
:100180005202490A520AE41A091812187D3491429F
:1001900001D3641C00E04900002C01DA002070BD8E
:1001A0000023914201D3891A0343400849000028E3
:1001B000F7D100290AD0914202D10121C90705E0F7
:1001C000914201D2012101E00121C943E005C0189B
:1001D000401900F0D3F870BDF0B50C465C4085B016
:1001E000E40FE40703944C00002664085900944689
:1001F000490802460296224321D062460A431ED095
:100200006200570D4A000E032303550D01240246D8
:100210002C492405781B1B0B360B4018234326431F
:10022000614600901C46501AB44103D30098401C0C
:10023000009002E0921800985B41002803DA002049
:10024000014605B0F0BD002001210905074686469C
:1002500011E064461D46141BB54106D36546521B8A
:10026000B341744607430C43A646CD0740084908EE
:10027000284392185B4105460D43EAD110461843C6
:1002800013D06046194650407140084306D060467E
:10029000101AB34106D20122002306E000220123F6
:1002A000DB0702E00122D243531000987446010597
:1002B000381C6141029C039D0019694100F09FF8C0
:1002C000BFE70000FD03000010B500229623114691
:1002D00000F05CF810BD00000EB505490291002148
:1002E00000910A460B46019100F096F803B000BD5C
:1002F00033040000C20FD207400040080BD0C10DEC
:100300000723DB01C91840020905400A1143C2084E
:10031000400711437047002001467047F0B51FB4F5
:100320000646002082B005464024019100901BE063
:10033000019922460F46304600F030FA049A059B98
:10034000801A994110D310461946224600F016FA39
:10035000361A8F410197224601200021009F00F0AC
:100360000DFA38184D4100902046641E0028DFDC4D
:10037000019B00982946324607B0F0BD002904DAF7
:10038000401C490001D140084000704770B400246F
:10039000050C05D11024000402D1002921D011241C
:1003A000050E01D100020834050F01D10001241D02
:1003B000850F01D18000A41C002801DB4000641CD3
:1003C000002908D020252E1B0D46F540A14000D065
:1003D00001212943084301061B1B000ADB1D02D52E
:1003E000002070BC7047DB05181880180029F8DA67
:1003F000401C4900F5D170BC40084000704710B562
:10040000002B08DA0024401C614192185B411A431A
:1004100001D14008400010BDF0B51FB482B00546C0
:100420000C0003D0084603F0CBFA02E003F0C8FA50
:100430002030024600902146284600F09FF9049B98
:10044000059A04460F4618431143084314D0184632
:1004500010431BD0009840210A1A1846059900F055
:100460009DF905460E46009A0599049800F086F914
:10047000084305D0012004E02046394607B0F0BD0E
:100480000020C11705430E432C43374300990E98B3
:100490006305401A7905E40A00220C43FD0A0A307C
:1004A00002D500200146E9E70105101969410C9CBD
:1004B0000D9D00196941FFF7A2FFDFE7F0B5074680
:1004C0000846584087B0C00F049048000E465900B7
:1004D00040084908BC1A884105D2384631461E46B4
:1004E00017460B4602465800400810434CD0300DCA
:1004F000039040055900400D490D0590401A0290A7
:10050000402872DA18030121000B09050843019005
:1005100004980092002805D0019952420020884199
:1005200000920190029840210A1A0199009800F067
:1005300025F905460C466B4607CB00F040F9C0197B
:100540007141039A0E0D0023D71756401A467A4080
:10055000164344D0049A002A2DD0029A012A039A05
:1005600015DC1205C01A914101263605001C7141A7
:10057000D20F059ED2070093019202962A46234687
:10058000FFF74AFF07B0F0BD38463146FAE71605D7
:10059000224A0F46B218C01AB74101210905001CB2
:1005A0004F4100187F41114618187941E20F10435E
:1005B0006D19644113E0E2076D0815436408C20732
:1005C0001443039A01261205C01A91413605001CF6
:1005D0007141CE07400830434908C01851412A46AE
:1005E0002346FFF70CFFCDE7FFE704980122400008
:1005F000C117121A00238B4104983146C417381AC8
:10060000A141EEE730B40124E407634030BC55E774
:1006100030B40124E407614030BC4FE70000E0FF44
:10062000F0B51FB488B00B99099800244840099987
:10063000C00F490049080991C0070B990090490073
:1006400049080B9109990898A64608431CD00B99B4
:100650000A98084318D0099801244000420D480028
:10066000410D099824050003000B204309900B98C5
:100670000003000B20430B9050181C494018002227
:1006800001901446104605E0002001460DB0F0BD73
:10069000032801DA034600E003239C46C11A0AAE90
:1006A0000AE05F0008ADED5B4F00F75B7D4300277C
:1006B000AA187C41491C5B1E6145F2DD410004AB78
:1006C0005A522104120C0A43240C401C0828DFDB78
:1006D000019802900099704601910090059B049A40
:1006E00007990698FFF798FED0E700000DFCFFFF82
:1006F0004A0009030123090B1B0519430A4B10B5D6
:10070000520D9A4202DA0020014610BD064B3433E6
:100710009A4203DC9A1A00F041F810BD034BD2183C
:1007200000F02CF810BD0000FF030000CDFBFFFF20
:1007300010B5002904DB0124E40740428C41214626
:10074000002B04DB1C460123DB075242A3419942E4
:1007500000D1904210BD0000064C0125064E05E078
:10076000E36807CC2B430C3C98471034B442F7D3D2
:10077000FFF7A6FC544700087447000810B5202A6C
:1007800004DB0146203A9140002010BD9140202317
:100790009C1A0346E3401943904010BD10B5202A2F
:1007A00004DB0846203AD040002110BD0B46D34060
:1007B000D0402024A21A91400843194610BD10B51C
:1007C000202A06DBCB170846203A1041C1170B43FD
:1007D00006E00B461341D0402024A21A9140084362
:1007E000194610BD30B58C180278401C13071B0F3A
:1007F00001D10378401C120906D10278401C03E0A5
:1008000005780D70401C491C5B1EF9D101E00B708E
:10081000491C521EFBD1A142E6D3002030BD72B666
:10082000FEE7000000217A4A08461278002A7DD0AF
:10083000F8B5784E325C401C5118C0B2C9B20828D5
:10084000F8D300220920335C401C9A18C0B2D2B2FF
:100850001728F8D3307A884269D1F07D904266D16A
:100860006D48F468B3683268716884634363C26238
:100870000163736932690364C26308BA000AF179DB
:1008800000020843654F80B2624C3880A17B627BD6
:100890000902114349BA39812246117CD37B0902EE
:1008A00019434BBA1946A37C657C1B022B435BBAE8
:1008B0001B0419431023D9417960117DD27C0902B0
:1008C000114349BA79815649641C097800296AD1D3
:1008D000FFF7FAFC5349FFF741FCFFF70BFD024617
:1008E0000B4651A1554803F057F8C2B2544D554B31
:1008F0002A705249544801F035FE3889FFF7E4FC6C
:100900004849FFF72BFCFFF7F5FC02460B464FA1C9
:100910004A4803F041F8C2B22A704A4B47494A4854
:1009200001F020FE7868FFF7CFFC01E06FE03AE0CD
:100930003C49FFF713FCFFF7DDFC02460B4648A1DC
:100940003E4803F029F8C2B22A703E4B3B493E486C
:1009500001F008FE7889FFF7B7FC3249FFF7FEFB8C
:10096000FFF7C8FC02460B4642A1344803F014F8D6
:10097000C2B22A70334B3149334801F0F3FD707D28
:10098000FF2834D0607D217D0002084342BABA813D
:100990003DA12A4803F000F8C2B22A70294B27492A
:1009A000294801F0DFFD3C481ECE054654351EC5E2
:1009B000726831688266394B41661A780020103EB1
:1009C000002A05DD364C00212154401C9042FBDBFF
:1009D00000221A70334B10461978002903DD325477
:1009E000401C8842FBDB0A481A700270F8BDB07DDB
:1009F000FF210A1ABA812CA1104802F0CDFFC2B221
:100A00002A70104B0D49104801F0ACFDCBE7704740
:100A1000561F00207C1F00207C230020941F0020F4
:100A20005A1F00200000C8427431302E7478743D83
:100A300022252E326622FFFFFF00000068230020DF
:100A400082170020FFFF0000282200207431312E81
:100A50007478743D22252E326622FFFFFF000000CD
:100A60007431322E7478743D22252E326622FFFFB7
:100A7000FF0000007431332E7478743D22252E322D
:100A80006622FFFFFF0000007431342E7478743D3D
:100A900022256422FFFFFF00FC2200208317002094
:100AA0009A130020541F00207431342E7478743D42
:100AB000222D256422FFFFFF00000000F0B4002873
:100AC0000BD0014620314A79022A09D00422C263A0
:100AD00000200871F0BC01207047F0BC0120704775
:100AE000026813680E24A3431360426C1468FF234A
:100AF00001339C4314600268146864086400146045
:100B00000D4E7268056C1C24254001242746AF4019
:100B10003A437260826CC56C5560026D002A05D044
:100B200015689D431560826D406D42604C710020D8
:100B30000871F0BC7047000000000240F8B50024C6
:100B4000014620314A79022A03D00421C1630124DD
:100B50002DE0026813680E25AB431360026813682A
:100B60005B085B001360426C1368FF250135AB43E3
:100B70001360104E7268056C1C231D4001231F4634
:100B8000AF403A437260826CC56C5560026D002ABA
:100B900006D016681D02AE431660426D856D556025
:100BA0004B7100220A71816B002900D088472046D2
:100BB000F8BD00000000024070B5044600F0C2F825
:100BC0000546601C02D004480078241800F0BAF8EA
:100BD000401BA042FAD370BD000000200B68002229
:100BE000002B7DD0F0B401270B6897403B4078D0B4
:100BF0000C79A407A40F012C01D0022C10D1856818
:100C000054000326A640B543CE68A6402E43866016
:100C100044680D79BC43ED06ED0F954025434560D2
:100C20000C79E443A40708D0C56854000326A64005
:100C3000B5438E68A6402E43C6600C79A407A40F66
:100C4000022C0CD1D408A40027183D6A5407E40EE6
:100C50000F26A640B5430E69A6402E433E620568A6
:100C600054000326A640B5430E79B607B60FA6403A
:100C70002E4306604C68A403A40F43D09508254C6E
:100C8000AD002F193D6E9407E40E0F26A640B54324
:100C900005263607B04201D100260FE01E4EB042B5
:100CA00001D101260AE01D4EB04201D1022605E025
:100CB0001B4EB04201D1032600E00526A6402E437C
:100CC000144D3E662C684E689C43F60200D51C43CA
:100CD0002C606C684E689C43B60200D51C4301E052
:100CE00017E00FE06C600F4D6C684E689C43B603D4
:100CF00000D51C436C602C684E689C43F60300D5FD
:100D00001C432C600B68521CD34000D06BE7F0BC36
:100D1000704770470018024000040050000800505F
:100D2000000C005080180240426913460B401B041F
:100D300091430B4383617047002A01D08161704762
:100D40008162704701488068704700000000002001
:100D5000024881680278891881607047000000208D
:100D600010B5084800240168821511430160032072
:100D700000F00AF8002801D0012401E000F028F872
:100D8000204610BD0020024070B50F4E002431787F
:100D90000546002915D07D20C000FFF7A5F90146C2
:100DA0000A480068FFF7A0F900F018FE002808D1F3
:100DB000042D06D200222946401E00F02FF875604F
:100DC00000E00124204670BD000000200C0000203F
:100DD00008B50A480168012211430160006810400B
:100DE00000900748C26B01040A43C263C06B08400D
:100DF00000900320400200F0E7FD08BD40100240D3
:100E000000100240002805DBC106C90E0120884001
:100E1000014908607047000000E100E08207D30E3E
:100E2000FF229A408907090E9940002808DB8308B1
:100E300009489B001818036893430B4303607047ED
:100E40000007000F0838830804489B001818C3697E
:100E500093430B43C361704700E400E000ED00E002
:100E600010B5104C216803225202914301432160C6
:100E7000C11FFF39FA3910D10B48062100684843D9
:100E80000A49FFF731F96169401C490505D5002879
:100E900005D06169401E4905F9D4002010BD03202A
:100EA00010BD0000007000400C00002040420F0008
:100EB000F8B50446002500682E4680035ED55A48E2
:100EC0000027C06BC00008D45748C16B020411430F
:100ED000C163C06B10400127009054480068FF2197
:100EE0000131084351490860FFF72CFF00904F483B
:100EF0000068C0050DD4FFF725FF0099401A0228AD
:100F000001D9032532E049480068C005F3D5002D1A
:100F10002CD14748C06903210902084010D0A169BB
:100F200081420DD04249C86903221202CB69904325
:100F3000012212041343CB61CB699343CB61C86197
:100F4000C00767D0FFF7FEFE00903948C1698907E6
:100F500060D4FFF7F7FE0099411A36488142D0D895
:100F60003348C0698007F4D5002D53D02E46002F9A
:100F700004D02D48C26B01048A43C2632078C007A5
:100F800006D02B4841696268890889001143416194
:100F90002078800706D5264948690C229043A2682C
:100FA000104348612078800607D521484169032213
:100FB00012039143E268114341612088400411D536
:100FC0001B48416962698900890811434161012117
:100FD00060698907884205D11348C168012212045B
:100FE0001143C1602088000512D5114841690322D0
:100FF00092039143226911434161012120698903D0
:10100000884205D10848C168012212041143C16019
:101010003046F8BD0649C869032212029043A2690E
:101020001043C861A3E700000010024000700040B8
:101030004010024088130000002801D101207047B1
:10104000F8B5044656480D4600684007400FA842D0
:1010500018D2534F3868C008C00028433860FFF7E3
:1010600071FE064638684007400FA8420AD0FFF7D5
:1010700069FE811B4B4881426ED838684007400F9B
:10108000A842F4D12068484E81070DD5400704D509
:10109000B068072109030843B060B0680F21090256
:1010A0008843A1680843B0602078C00739D06068E1
:1010B00001280BD002280DD000280FD03B4903286F
:1010C00010D0C969890710D40120F8BD316889039F
:1010D000FAD50AE031688901F6D506E0316849059C
:1010E000F2D502E0096A8907EED5B168C908C900DE
:1010F0000143B160FFF726FE0746B06862683821F9
:101100000840D20090420CD0FFF71CFEC11B2548BE
:10111000814221D8B068382108406168C9008842FE
:10112000F2D11F4801684907490FA9421CD900683C
:10113000C108C9001A4829430160FFF703FE0746AA
:10114000174800684007400FA8420DD0FFF7FAFD8E
:10115000C11B1448814201D90320F8BD1048006822
:101160004007400FA842F1D12078400706D5B0686B
:10117000072109038843E1680843B06000F032F8B2
:10118000B1683C2289091140094A515CC906C90E5F
:10119000C8400849086008480068FFF7F5FDF8BD39
:1011A000002002408813000000100240401002405E
:1011B000F44600080C0000200400002006480749FF
:1011C00000688968064A4904490F8900515CC906CC
:1011D000C90EC840704700000C00002000100240FB
:1011E0003447000810B5204CA068204B8006400F03
:1011F00016D0A0688006410F581001290FD0A168B1
:101200008906490F022912D0A0688006400F0428E1
:1012100023D0A0688006400F032821D0002010BDF5
:10122000206801218004400F8140184612E0E168E7
:101230008A07E168920F4906490F491C032A00D02A
:101240001846FEF751FFE1684904490E4843E1683A
:10125000490F491CFEF748FF10BD0120C00310BD17
:101260007D20000210BD0000001002400024F400A8
:10127000002801D101207047F8B5044600783826CF
:10128000C007F94F00284CD0B868F968304089078A
:10129000890F102802D008280BD001E0032908D0BC
:1012A00001216068090488420AD13868084338601F
:1012B00017E03868800334D5606800287ED030E0BD
:1012C000052301221B0492049842386804D110437C
:1012D00038603868084303E08843386038689043D2
:1012E0003860606800280ED0FFF72CFD054638688E
:1012F000800316D4FFF726FD401B64287ED838688B
:101300008003F7D50DE0FFF71DFD05463868800323
:1013100007D5FFF717FD401B64286FD83868800396
:10132000F7D4207880076ED5B868F968304089070F
:101330000722890FD202102802D0002826D001E00F
:10134000022923D0E068002848D0386821699043FA
:10135000084338603868FF21013108433860FFF7DF
:10136000F1FC05463868400507D4FFF7EBFC401B4D
:10137000022843D838684005F7D578687F210902EC
:10138000884361690902084378603CE0396849058F
:1013900002D5E168002911D079687F231B029943A7
:1013A00063691B0219437960002810D138682169EC
:1013B0009043084338603868800400E08CE0400FB8
:1013C00001218140A948FEF78FFEA9490860A9487C
:1013D0000068FFF7D9FC00287ED114E03968FF20AF
:1013E000013081433960FFF7ADFC054638684005A0
:1013F00009D5FFF7A7FC401B022800E06DE06CD880
:1014000038684005F5D420789B4D000732D5B86880
:101410008006400F032815D0A0690028286A18D03C
:10142000012108432862FFF78DFC0646286A8007E1
:1014300020D4FFF787FC801B02284ED8286A80073B
:10144000F7D517E0286A800714D5A069002843D093
:1014500010E0400840002862FFF774FC0646286A46
:10146000800707D5FFF76EFC801B022835D8286A55
:101470008007F7D42078400779D5B8680026800621
:10148000400F04284AD0F86BC00008D4F86B012143
:1014900009070843F863F86B084001260090774875
:1014A0000168C90516D40068FF210131084373495A
:1014B0000860FFF747FC009070480068C00509D439
:1014C000FFF740FC0099401A02286AD86B48006870
:1014D000C005F5D5A06801E09BE062E0012824D0BA
:1014E00004210528E86925D040084000E861E86942
:1014F0008843E861A068002822D0FFF723FC009011
:10150000E86980072CD4FFF71DFC0099411A5C485C
:10151000814246D8E8698007F5D521E0E86980076F
:1015200025D5A068002874D021E0E869012108438E
:10153000E861DFE70843E861E86901210843D8E78B
:10154000FFF700FC0090E869800709D5FFF7FAFB78
:101550000099411A4A48814223D8E8698007F5D4A6
:10156000002E04D0F96B012000078143F963E06984
:1015700000284DD0B9688906490F022952D00126AA
:101580003606022838680ED0B0433860FFF7DAFB21
:1015900004463868800140D5FFF7D4FB001B0228C1
:1015A00038D90320F8BDB0433860FFF7CBFB0546C0
:1015B0003868800107D5FFF7C5FB401B0228F0D82B
:1015C00038688001F7D4616A206AA26A0843E16A38
:1015D000120211430843216B0843F968294A11405C
:1015E0000843F860386830433860F868012109071B
:1015F0000843F860FFF7A6FB04463868800145D42D
:10160000FFF7A0FB001B0228CBD838688001F7D574
:101610003CE026E038688001BED4F8681A490840EA
:10162000F86033E00128BDD0F868226A8107890F8D
:10163000914216D17021626A0140914211D17F21FD
:10164000A26A09020140120291420AD11F214904F3
:10165000E26A0140914204D1400F216B4007884269
:1016600014D00120F8BD0000001002400024F40056
:101670000C000020040000204010024000700040D8
:10168000881300008C80C11FFCFFFEEF0020E9E7FB
:1016900030B400684368C020C0431840C404E50E5D
:1016A0001B0284061B0ECB70A40E00044D70400F6D
:1016B0008C700870002A14D118090A2250431A07A6
:1016C000120F1018C87028090A2250432A07120F57
:1016D0001018487020090A2250432207120F1018D0
:1016E000887030BC0020704730B403689B684B6042
:1016F00003681B695B045B0C8B6000680068144B1B
:10170000184083029D0E43045C0E43060D705B0E71
:1017100040024C70C00F8B70C870002A14D1280989
:101720000A2250432A07120F1018087020090A22B3
:1017300050432207120F1018487018090A2250430C
:101740001A07120F1018887030BC00207047000074
:101750007F7F7F0070B504460120002C4BD02546CA
:101760002035687A002806D128721120C0026060F6
:10177000204600F047F8022068722068C168C9431B
:10178000C90639D5CA2141622168532048622046E2
:1017900001F00CF9002829D120688169184A11400C
:1017A000816120688169A268E369114362691A4313
:1017B0001143816121682069086120680169A2895B
:1017C000120411430161204601F012F900280DD1E5
:1017D00021688A69D200D2088A6121688A69636AAD
:1017E000A6691A43236A33431A438A612268FF2198
:1017F0005162002801D070BD00200121697270BDC6
:10180000BFFF8FFB00B589B00021009101910291CB
:10181000039104910591069100680F49884219D1FE
:10182000012040040090001206906846FFF740FB3C
:10183000002801D0FEF7F3FF0848C1690122D20356
:101840001143C1610648C26B01150A43C263C06BF4
:101850000840079009B000BD002800404010024039
:1018600000100240F8B5054604462035287A0B469C
:1018700001281BD001272F7202206872002A17D07E
:10188000D8789E7800040643587809780002490306
:10189000084306432168CA204862216853204862F1
:1018A000204601F083F8002819D01FE00220F8BD7F
:1018B0005878C10603D5EF2108400A305870D8780F
:1018C00001F068F80604587801F064F80002064355
:1018D000987801F05FF8064318784003D9E7084884
:1018E000064020684660204601F082F82268FF2109
:1018F0005162002800D16F7200212972F8BD0000EA
:101900003FFFFF00F7B5064605462036307A0C4605
:10191000012810D001203072022070722968CA207C
:101920004862296853204862284601F03FF80027A2
:10193000002803D028E0022003B0F0BD0298002860
:101940002868806926D0400600D4E7702078A27805
:10195000000402436078E1780002890508430243ED
:1019600018480240286802602868816901229204B0
:1019700091438161E16820690143286882691143CC
:101980008161284601F034F82A68FF21516200285D
:1019900013D014E0400600D4E770207800F0FAFF7E
:1019A0000204607800F0F6FF00020243A07800F025
:1019B000F1FF0243E0788005D1E7012171723772AF
:1019C00003B0F0BD7F7F7F00034A116803235B02F1
:1019D0009943014311607047000001400B4910B466
:1019E000401E884202D910BC012070470849486156
:1019F00008480722C3691B021B0A4C042343C36126
:101A0000002088610A6110BC70470000FFFFFF00E2
:101A100000E000E004ED00E0704770477047000010
:101A200002462032137F012B01D102207047F0B40F
:101A3000012313770223537704686368A568104E67
:101A4000B44204D10F273F05BB434F683B43702787
:101A5000BB430F681F4367600068B04205D0094B65
:101A6000984202D0084B984204D1802389689D4354
:101A7000294381600120507700201077F0BC704727
:101A8000002C01400004004000400140002801D12A
:101A90000120704770B5054604462035687F002850
:101AA00003D12877204600F017F802206877211D1F
:101AB000206801F001FA012040342072A877E8770D
:101AC00020706070A070E07020716071A071E07192
:101AD0006877002070BD000008B50068244A2549D9
:101AE00090420DD1C86B10221043C863C86B1040E0
:101AF0000022009011461120FFF790F9112033E0E9
:101B00001D4A90420DD1C86B20221043C863C86B98
:101B100010400022009011461220FFF77FF912209A
:101B200022E0164A164990420DD10A68C0130243BA
:101B30000A60096800220140009111461320FFF756
:101B40006DF9132010E00F4A90420FD10A6801206E
:101B5000400402430A6009680022014000911146D6
:101B60001520FFF75BF91520FFF74CF908BD0000C1
:101B7000001000400010024000140040002000400F
:101B80004010024000440140014620314A7F012AB2
:101B900001D00120704702224A770168CB680122F8
:101BA0001343CB6000680B49884205D00A4988423C
:101BB00002D00A49884207D18168094B1940062999
:101BC00005D0DB1F994202D001681143016000205B
:101BD00070470000002C014000040040004001401C
:101BE000070001000168CA6852085200CA60016813
:101BF0000A6A084B1A4207D10A6A9B101A4203D19B
:101C00000A68520852000A60012120304177002002
:101C100070470000111100007047000070B50446C5
:101C2000006801690025C9438907002915DBC168DF
:101C3000C943890711D4E91E01610120207720687A
:101C400080698007204602D0FFF7E6FF04E000F03D
:101C5000A7F8204600F0A5F8257720680169C94358
:101C6000490717D4C168C943490713D40421C9439C
:101C7000016102202077206880698005800F20465E
:101C800002D0FFF7C9FF04E000F08AF8204600F018
:101C900088F8257720680169C943090716D4C16807
:101CA000C943090712D40821C943016104202077E0
:101CB0002068C0698007204602D0FFF7ADFF04E02E
:101CC00000F06EF8204600F06CF825772068016976
:101CD000C943C90617D4C168C943C90613D4102122
:101CE000C9430161082020772068C0698005800F02
:101CF000204602D0FFF790FF04E000F051F82046A4
:101D000000F04FF8257720680169C943C90708D159
:101D1000C168C943C90704D1891E0161204600F08A
:101D200041F820680169C943090609D4C168C9435B
:101D3000090605D48021C94301612046FFF76DFEE5
:101D400020680169C943C90508D4C168C9430906A7
:101D500004D4124901612046FFF75EFE2068016944
:101D6000C943490609D4C168C943490605D440217D
:101D7000C9430161204600F057F820680169C94352
:101D8000890609D4C168C943890605D42021C943FD
:101D900001612046FFF742FE70BD0000FFFEFFFF1D
:101DA00070477047184988422CD170B5174D184CB0
:101DB0002878182808D9002028702070154B0A228E
:101DC0001549164800F0CEFB20785A2816D16078C5
:101DD0005A2813D1607A5A2810D1A07A5A280DD1E6
:101DE000287818280DD10E4C2078002806D118220A
:101DF00007490C48FEF78EF9012020700248FFF7D2
:101E0000F1FE70BD70470000D01F0020541F00205D
:101E10006C1B0020FFFF00006D1F00200021002030
:101E2000561F00207C1F00207047014680310A7930
:101E3000012A01D10220704710B401220A71242224
:101E40008A600268136814686408640014600122E0
:101E50005207934300224266006803602020886096
:101E60000A7110BC104670477047704770B5044641
:101E700005468034207901281AD0012020712420C1
:101E8000A06028680668026852085200026028684C
:101E9000826807235B069A430A438260284601F062
:101EA0004FF8286806602020A0600020207170BDD7
:101EB000022070BD70B504460546803420790128A3
:101EC00019D0012020712420A060286806680268CB
:101ED00052085200026028688268D200D2080A4381
:101EE0008260284601F02CF8286806602020A06057
:101EF0000020207170BD022070BD70477047704790
:101F0000F8B503680446D86919689A68B64D06465C
:101F10002E4025468035002E76D0B44EB44F164064
:101F20000F4037436FD0C70706D0CF0504D5012730
:101F30001F622B693B432B61830708D5D30706D06B
:101F4000276802233B622B6904273B432B6143072D
:101F500008D5D30706D0276804233B622B690227E4
:101F60003B432B61030709D520230B40334305D0A6
:101F70002668082333622E691E432E61030509D5A6
:101F80004B0107D501232668DB0233622B6920262B
:101F900033432B612B69002B33D080060AD52020D8
:101FA0000140C0050240114304D0616F002901D0F7
:101FB00020468847286921688968490602D4282173
:101FC000084232D0204601F083F820688168490633
:101FD00027D5EFF31081012282F310888368402215
:101FE0009343836081F310882868002819D08149C1
:101FF00081632868FEF7A2FD002802D02868816B63
:102000008847F8BD00E016E0860614D50127202693
:102010003F070E4017403E430DD0616F00297DD130
:10202000F8BD2046FFF76BFFF8BD2046FFF767FFBE
:1020300000202861F8BDE66E012E70D1C6066ED56F
:10204000CE066CD510221A622068816826464906A1
:10205000403600294CDA2B68196849680904090CD4
:10206000E8D0B78B8F42E5D9F183196809688906F2
:1020700034D4EFF31081012383F310880368170130
:10208000BB43036081F31088EFF31081012080F3DC
:102090001088206883685B085B00836081F3108888
:1020A000EFF31081012080F31088206883684027B7
:1020B000BB43836081F310882020E8600020E06645
:1020C000EFF31081012080F31088206803689343A8
:1020D000036081F310882868FEF7F0FC0220206777
:1020E000B08BF18B401A81B22046FFF7BDFEF8BDE0
:1020F000B18BF38BC91AF38B89B2002BF7D000296F
:10210000F5D0EFF31083012686F310880668FF27C9
:102110002137BE43066083F3108801E039E021E0F7
:10212000EFF31083012080F3108820688668324F17
:102130003E40866083F310882020E8600020E0663F
:10214000EFF310836067012080F310882068056832
:102150009543056083F31088022020672046FFF72F
:1021600083FEF8BDC60208D5560206D5012000053B
:1021700018622046FFF7C2FEF8BD06060CD50127FF
:102180008026FF050E403A40164305D0A16F002976
:10219000F2D020468847F8BD420614D54A0612D52B
:1021A0002046EFF31081012282F310881A68402440
:1021B000A2431A6081F310882021A9600021816761
:1021C00000F03BFAF8BD020205D54A0003D52046CF
:1021D000FFF793FEF8BDC001FCD50029FADA2046CE
:1021E000FFF743FEF8BD00000F08000001000010DB
:1021F00020010004BD300008FEFFFFEF002801D1E0
:102200000120704770B5054604468035A86800284F
:1022100003D12871204600F027F82420A860206808
:102220000168490849000160204601F0B3F901281E
:1022300018D0A06A002802D0204600F0A3FE206833
:1022400041680922D20291434160206881682A22B4
:10225000914381602068016801221143016020469A
:1022600000F0F6FE70BD0000F0B58DB000250095C1
:102270000195029503950495059506950795089592
:1022800009950A950B9501685C485D4C012602276B
:1022900081422AD105A80596FEF70AFE002801D042
:1022A000FEF7BDFA57480268012189030A4302601C
:1022B000006808400C90606B30436063606B694657
:1022C000C007C00F0C90032040020090052002952B
:1022D0000197049603950007FEF780FC0022114643
:1022E0001B20FEF79BFD1B202AE0474881422BD193
:1022F00005A80597FEF7DCFD002801D0FEF78FFA50
:10230000E16B012040040143E163E16B01400C916A
:10231000606B30436063606B6946C007C00F0C9010
:102320000C20009005200295019704960395000764
:10233000FEF754FC002211461C20FEF76FFD1C2006
:10234000FEF760FD0DB0F0BD304A0420914230D15F
:10235000E16B02041143E163E16B11400C91616B8D
:1023600031436163616BC907C90F0C91616B3943DC
:102370006163616B044639400C9120210490009107
:102380000520019769460007FEF728FC029569467B
:102390001F480197009603950494FEF71FFC002246
:1023A00011461D20FEF73AFD1D20FEF72BFD0DB056
:1023B000F0BD184A9142FAD1E16B0122D2041143D7
:1023C000E163E16B11400C91616B31436163616BBF
:1023D0000490C907C90F0C910321009105200197B2
:1023E00069460007FEF7FAFB002211461D20FEF7A2
:1023F00015FD1D20FEF706FD0DB0F0BD00380140B3
:1024000000100240401002400044004000480040DC
:1024100000040050004C004070B58C231B58202B4A
:1024200001D0022070BD00290BD0002A09D0012460
:1024300083682403A34206D10369002B03D1CB0791
:1024400001D0012070BD0023C36603685C682402CC
:102450000BD5EFF31084012585F310881D68012644
:10246000B60635431D6084F3108801F063F970BD32
:1024700070B5044600682749274D88420BD10122D8
:1024800026492748FFF7C8FF2749264B08786A796D
:102490001A54401C08702549206888420BD101223B
:1024A0001E492348FFF7B8FF2349224B08786A7971
:1024B0001A54401C08702149206888420ED101221C
:1024C00016491F48FFF7A8FF1F491E4A08786B7975
:1024D0001354401C08701D49107808701C4821686E
:1024E000814216D101220D491A48FFF795FF1B4979
:1024F000194B08786A791A54401C0870184C01204E
:102500002168C04308612046FFF73EFB2168002098
:10251000486270BD00380140561F00205B1F00203C
:1025200000210020F8030020E007002000440040C4
:1025300094210020C90B0020B10F0020004800406A
:10254000282200209A130020831700205A1F002001
:10255000004C0040BC2200206C1B0020541F0020B7
:10256000D01F0020FFB5044683B080300190806802
:1025700015460F46202802D0022007B0F0BD002FDC
:102580000BD0002D09D00120A1680003814207D1A2
:102590002069002804D1F80702D0012007B0F0BD5F
:1025A000019800210161019821218160FEF7CAFB99
:1025B000264640360290B582F5820120A1680003CC
:1025C000814202D1206900280FD03D460027F08AC1
:1025D000002818D006980090002280212046029BF7
:1025E00001F044F9002818D101E00025EFE7002DA3
:1025F00016D02168287888626D1CF08A401EF0820F
:10260000F08A0028E6D1069800900022402120465A
:10261000029B01F02BF9002809D0032007B0F0BD80
:1026200038882168C005C00D8862BF1CE5E70198A5
:1026300020218160002007B0F0BD7047FEE7000058
:10264000F0B587B0002419480094019402940394D3
:102650000494426B04210A434263426B0A40059290
:10266000426B20210A434263426B0A400592416B50
:10267000012631434163416B31400591426B022198
:102680000A434263406B0A4F08400D030590002245
:1026900029463846FEF750FB0294694638460196B3
:1026A00000950394FEF79AFA07B0F0BD00100240BF
:1026B00000080050FEE77047F0B572A1086885B0C9
:1026C00049680191009071A10868496803910290DE
:1026D0000121002649036F48FEF726FB6E4C6F4927
:1026E000A0786F4D01281FD0002860D1E078002825
:1026F0005DD101270B46E770082202A96948FFF760
:1027000031FF1E20FEF758FA092267496748FDF796
:1027100001FD0721654801F0D5FD644AC1B2137877
:10272000000A022B45D040E0E07801283FD10F4657
:102730000B46E670082269465A48FFF713FF1E2031
:10274000FEF73AFA072258495948FDF7E3FC0521FC
:10275000574801F0B7FD564AC1B21378000A012B61
:1027600023D153798B4220D1917981421DD11046DA
:102770000179C2780802104340BA4E492081097895
:10278000002912D1FDF7A8FD00224B4BFDF724FDD7
:1027900002460B4649A14E4801F0FEF8C2B22A702B
:1027A0003B464B494B48FFF7DDFE4B48067005B0F2
:1027B000F0BDD3798B42F8D1117A8142F5D11079ED
:1027C000082840D201007944097949188F44030A46
:1027D00011181F262D3441A1454801F0DDF828705D
:1027E000A67130E043A1424801F0D6F82870A771E5
:1027F00029E045A13E4801F0CFF82870022021E0F1
:1028000046A13B4801F0C8F8287003201AE048A10F
:10281000374801F0C1F82870042013E049A134487A
:1028200001F0BAF8287005200CE04BA1304801F007
:10283000B3F82870062005E04CA12D4801F0ACF853
:1028400028700720A0711B4800780028ADD1134FD5
:102850002A783B4626491F48FFF784FE13488179B2
:1028600042790802104342BA628145A1484801F00A
:1028700093F8C2B22A703B4645491648FFF772FEEC
:1028800093E70000010300000001840A0203000036
:102890000002C43800080050561F0020FFFF00004F
:1028A0008217002094210020C90B0020C0230020A3
:1028B000661F00205A1F0020000024407431372E6C
:1028C0007478743D22252E316622FFFFFF00000040
:1028D000C923002028220020B10F00207431382E97
:1028E0007478743D22B1B1B7E722FFFFFF0000000A
:1028F000D52300207431382E7478743D22B6ABB1E4
:10290000B1B7E722FFFFFF007431382E7478743DB1
:1029100022B6ABB7E722FFFFFF0000007431382E6C
:102920007478743D22B6ABC4CFB7E722FFFFFF0037
:102930007431382E7478743D22C4CFB7E722FFFF7C
:10294000FF0000007431382E7478743D22CEF7C435
:10295000CFB7E722FFFFFF007431382E7478743D43
:1029600022CEF7B7E722FFFFFF0000007431382EB8
:102970007478743D22CEF7B1B1B7E722FFFFFF00B4
:102980007432302E7478743D22256422FFFFFF00DC
:10299000E123002000210A2804D30A38C0B2491CD0
:1029A0000A28FAD20907090E08437047F8B5054608
:1029B00000680024C168490618D4C1688022114308
:1029C000C160FEF7BFF92E460746203608E0FEF745
:1029D000B9F9C11B7D20C000814201D90324747262
:1029E0002868C068400601D4032CF0D12046F8BD09
:1029F000F8B5044626480026C16880229143C1608C
:102A0000816925468A062035A021002A1ADB206824
:102A1000C2688A43C260FEF795F907462068C0681D
:102A2000800633D4FEF78EF9C11B7D20C0008142A1
:102A300003D903206872064628E02068C068800633
:102A4000F0D523E01248826920239A4382612068EE
:102A5000C2688A43C260FEF775F907462068C068FD
:102A600080060ED4FEF76EF9C11B7D20C0008142A6
:102A700003D903206872064603E02068C068800618
:102A8000F0D5034988692022104388613046F8BD9B
:102A900000280040704710B5FEF75AF910BD30B558
:102AA00093B034216846FDF74EFB002401200E94BC
:102AB0000F94109440021194FEF7D2F90A2000906E
:102AC000FF200130039040200590012006900494DF
:102AD00030200225099048200A9028040B900720F6
:102AE000079540070C9008956846FEF7C1FB002843
:102AF00001D072B6FEE707200E90012080031190EE
:102B00000F95109401210EA8FEF796FA002801D027
:102B100072B6FEE713B030BD7047000010B508482C
:102B2000FFF77CF807490878401CC0B208701E28DF
:102B300004D10020087004490120087010BD000075
:102B400068200020791F00205D1F002010B502487A
:102B5000FFF764F810BD0000B420002010B5024853
:102B6000FFF75CF810BD0000D01F002010B50E4824
:102B7000FFF754F80D49002308780122401CC0B229
:102B80000870052802D10A480B70027009490878BC
:102B9000401CC0B20870012804D107480B700178AE
:102BA000511A017010BD00001C200020771F00206A
:102BB000571F0020781F0020581F002070B57F4D40
:102BC000E879012868D10020E87102467C497D48F7
:102BD000FEF78AFD00227C497A48FEF759FD7B48C2
:102BE0007B4C01787B4E7C48072955D20A007A44F9
:102BF0001279921897440351647890A3CE00704DD7
:102C000076A12A78794800F0C7FEC2B22270334616
:102C100076497748FFF7A6FC6A7876A1734800F0FA
:102C2000BBFEC2B22270334670497148FFF79AFC6E
:102C3000AA7874A16D4800F0AFFEC2B2227033468C
:102C40006A496B48FFF78EFC5F4D7D21E8780901EA
:102C5000421870A1654800F09FFEC2B22270334650
:102C600062496348FFF77EFC6A786EA15F4800F016
:102C700093FEC2B2227033465C495D48FFF772FC96
:102C8000AA786CA1594800F087FEC2B22270334680
:102C900056495748FFF766FC70BD0088A02148439D
:102CA0006849FDF721FA024667A1504800F074FE1A
:102CB000C2B2227033464D494D48FFF753FC70BDF8
:102CC0000089A02148437D214901FDF70DFA024604
:102CD00061A1464800F060FEC2B22270334643490B
:102CE0004348FFF73FFC70BD40686421FDF7FCF9E5
:102CF0005D494018A02148435C49FDF7F5F90246BB
:102D00005BA13A4800F048FEC2B222703346374910
:102D10003748FFF727FC70BD4089A0214843584938
:102D2000FDF7E2F9024657A1304800F035FEC2B285
:102D3000227033462D492E48FFF714FC70BD5549CB
:102D400080894A7D7D21C900FF2A11D02822504365
:102D5000FDF7CAF9024628324FA1244800F01CFEB4
:102D6000C2B22270334621492148FFF7FBFB70BDF8
:102D700028225043FDF7B8F928210A1A46A11B481A
:102D800000F00AFEC2B22270334618491848FFF715
:102D9000E9FB70BD2889282148433221FDF7A4F9B9
:102DA000024641A1114800F0F7FDC2B2227033463D
:102DB0000E490F48FFF7D6FB70BD0000561F0020DC
:102DC000F0230020A41F0020621F00205A1F0020B3
:102DD00082170020FFFF0000941F00207432312E64
:102DE0007478743D22256422FFFFFF0068230020D1
:102DF000282200207432322E7478743D22256422F9
:102E0000FFFFFF007432332E7478743D2225642254
:102E1000FFFFFF007432362E7478743D2225642241
:102E2000FFFFFF007432372E7478743D2225642230
:102E3000FFFFFF007432382E7478743D222564221F
:102E4000FFFFFF00A086010061646420312C302C5C
:102E50002564FFFFFF00000061646420322C302CE9
:102E60002564FFFFFF00000070A0FEFF204E000061
:102E700061646420332C302C2564FFFFFF000000C8
:102E80001027000061646420342C302C2564FFFF7F
:102E9000FF0000005023002061646420352C302C9A
:102EA0002564FFFFFF00000061646420362C302C95
:102EB0002564FFFFFF000000F0B402681A4B1B4CB2
:102EC000984201D0A04203D17025AA434D682A43FD
:102ED000174D184E184F98420AD0A04208D0174CF0
:102EE000A04205D0A84203D0B04201D0B84204D1DC
:102EF00003242402A243CC6822438024A2434C69C9
:102F0000224302608A68C2620A688262984205D0DF
:102F1000A84203D0B04201D0B84201D1096901638F
:102F200001214161F0BC7047002C014000040040C9
:102F300000400140004401400048014000200040A2
:102F4000F8B50446416E4034002914D00068816809
:102F5000806809014D0F094E400F094F315C385C04
:102F6000C000FDF7C1F86085785D715DC000FDF7B8
:102F7000BBF82085F8BD01206085FAE7EC46000823
:102F8000E446000810B4018DC90707D001684A68FB
:102F900001235B049A43C36A1A434A60018D89077F
:102FA00007D501684A6801231B049A43036B1A433F
:102FB0004A60018D490707D501684A6801239B04CF
:102FC0009A43436B1A434A60018D090707D501688C
:102FD0004A680123DB039A43836B1A434A60018DDD
:102FE000C90607D501688A6801231B039A43C36B8E
:102FF0001A438A60018D890607D501688A68012312
:103000005B039A43036C1A438A60018D490612D50B
:1030100001684B6801221205446C934323434B60C3
:10302000416C914207D101684A6803235B059A43CA
:10303000836C1A434A60018D090607D501684A6806
:103040000123DB04C06C9A4302434A6010BC704702
:10305000F0B5054683B00026803504462E61FDF7A5
:1030600071FE019020680068134F000709D5012107
:103070000097002249052046019B00F0F7FB00283D
:103080000DD12068006840070CD50121009700226F
:1030900089052046019B00F0E9FB002802D00320AF
:1030A00003B0F0BD2020A860E860E66626672E71B8
:1030B000002003B0F0BD0000FFFFFF0110B5806AE3
:1030C000002201464031CA83CA82FEF718FF10BDB4
:1030D00010B4EFF31082012181F3108801680B68AE
:1030E000FF242134A3430B6082F31088EFF3108296
:1030F000012181F3108801688B680D4C23408B609F
:1031000082F31088C16E01290AD1EFF3108281F396
:10311000108801680B681024A3430B6082F31088A9
:1031200020228C210A500021C166416710BC7047E3
:10313000FEFFFFEF70B501464031024680320B8C36
:10314000D56814460268222D04D0906908210843EE
:10315000906170BD526A856D1A402A80826D921C02
:103160008265CA8B521ECA83CA8B002AF1D1EFF343
:103170001083012282F3108802681568FF26213629
:10318000B543156083F31088EFF31083012282F3B7
:103190001088026895686D086D00956083F310884B
:1031A0002022E260002242670267C36E012B02D038
:1031B000FFF75EF970BDC266EFF31083012282F360
:1031C0001088026815681024A543156083F31088E1
:1031D0000268D369DB43DB0600D41462898BFEF7F7
:1031E00043FE70BDF0B507460446403785B0388CC5
:1031F00003902068C6690168019181682546803581
:103200000091E968222905D0816908221143816172
:1032100005B0F0BD388D029060E02068406A039AE6
:10322000A16D10400880A06D801CA065F88B401E29
:10323000F8832068C669710729D0F10707D0019982
:10324000C90504D501210162286908432861B00736
:1032500009D50098C00706D02168022008622869B5
:10326000042108432861700709D50098C00706D0DB
:10327000216804200862286902210843286128691E
:10328000002804D02046FEF73AFE00202861F88B83
:10329000002823D1EFF31081012080F310882068EB
:1032A0000268FF2301339A43026081F31088EFF331
:1032B0001081012080F3108820688268274B1A4013
:1032C000826081F310882020E8600020606720671A
:1032D000E16E01292AD02046FFF7CAF8029800289B
:1032E00001D0B00699D4F88B002891D0398D814255
:1032F0008ED9EFF31081012080F310882068826856
:1033000001231B079A43826081F310881448EFF36E
:1033100010816067012080F31088206802682023F4
:103320001A43026081F3108805B0F0BDE066EFF348
:103330001080012181F3108821680B6810229343CB
:103340000B6080F310882068C169C943C90600D4A6
:103350000262B98B2046FEF787FDBFE7FEFFFFEF55
:103360003531000870B501464031024680320B8C81
:10337000D56814460268222D04D0906908210843BC
:10338000906170BD526A1A40836D1A70826D521C32
:103390008265CA8B521ECA83CA8B002AF1D1EFF311
:1033A0001083012282F3108802681568FF262136F7
:1033B000B543156083F31088EFF31083012282F385
:1033C0001088026895686D086D00956083F3108819
:1033D0002022E260002242670267C36E012B02D006
:1033E000FFF746F870BDC266EFF31083012282F347
:1033F0001088026815681024A543156083F31088AF
:103400000268D369DB43DB0600D41462898BFEF7C4
:103410002BFD70BDF0B507460446403785B0388CAB
:1034200003902068C669016801918168254680354E
:103430000091E968222905D0816908221143816140
:1034400005B0F0BD388D029060E02068406A0399B5
:103450000840A16D0870A06D401CA065F88B401E4F
:10346000F8832068C669710729D0F10707D0019950
:10347000C90504D501210162286908432861B00704
:1034800009D50098C00706D0216802200862286983
:10349000042108432861700709D50098C00706D0A9
:1034A00021680420086229690220014329612869F2
:1034B000002804D02046FEF722FD00202861F88B6A
:1034C000002823D1EFF31081012080F310882068B9
:1034D0000268FF2301339A43026081F31088EFF3FF
:1034E0001081012080F3108820688268274B1A40E1
:1034F000826081F310882020E860002060672067E8
:10350000E16E01292AD02046FEF7B2FF029800287A
:1035100001D0B00699D4F88B002891D0398D814222
:103520008ED9EFF31081012080F310882068826823
:1035300001231B079A43826081F310881448EFF33C
:1035400010816067012080F31088206802682023C2
:103550001A43026081F3108805B0F0BDE066EFF316
:103560001080012181F3108821680B681022934399
:103570000B6080F310882068C169C943C90600D474
:103580000262B98B2046FEF76FFCBFE7FEFFFFEF3C
:1035900065330008F8B5044681680069E2690143B3
:1035A000606900251043014320680268564B1A40A9
:1035B0000A43026020684168032212039143E268D3
:1035C00011434160216AA0690143206882684F4B22
:1035D0001A400A4382602068C16A626A09090901C7
:1035E0001143C1624A4A20684A4990420CD1486955
:1035F0008007800F23D0012804D002281FD0032881
:103600001CD111E004201AE0434A90420ED14869CF
:103610000C21084013D0042811D0082802D00C280F
:103620000CD101E002200AE0082008E03B49884272
:1036300002D03B49884201D1002000E01020012245
:10364000E169D203374B384E384F91422AD10028D6
:1036500006D0022807D0042807D0082842D11FE04E
:10366000FDF7ACFD03E0184603E0FDF7BBFD0028C5
:103670003FD0616A4900715AFCF736FD616840002D
:103680004A088018FCF730FD01461039B94229D8A4
:10369000274901400007420F20680A43C26028E022
:1036A0001046E6E7002806D0022807D0042807D0F5
:1036B000082817D118E0FDF781FD03E0184603E064
:1036C000FDF790FD002814D0616A4900715AFCF79B
:1036D0000BFD61684A088018FCF706FD01461039A9
:1036E000B94203D9012504E01046EDE7216880B214
:1036F000C860204601214030418501850020606777
:10370000A0672846F8BD0000F369FFCFFFF4FF1162
:103710000038014040100240004400400048004092
:10372000004C00400024F400CC460008EFFF0000ED
:10373000F0FF0000F0B48165014640318A83CA83FE
:1037400000254567012483682403FF26A34204D192
:103750000369002B13D1404B0AE07F27002B09D0CF
:1037600001263607B3420CD10369002B05D03F2355
:103770000B8407E00369002B01D00F8402E00E8464
:1037800000E00D84034680331D612225DD60EFF3E8
:103790001085012383F3108803689E6801273E4348
:1037A0009E6085F31088436E7D07AB4229D1098D59
:1037B000914226D88168A14202D1016900291DD019
:1037C00026494167016900290CD0EFF310820121DD
:1037D00081F3108801680B68FF24013423430B60D8
:1037E00082F31088EFF31081012282F310880068C1
:1037F000826801231B071A43826018E01849416759
:10380000F0E78168A14202D10169002912D015496F
:103810004167016900290FD0EFF31081012282F383
:10382000108800680268FF2321331A43026081F385
:1038300010880DE00C494167EFF31081012282F3FB
:1038400010880068026820231A43026081F3108800
:10385000F0BC002070470000FF0100001534000894
:10386000E53100086533000835310008FFB504462E
:10387000006881B00F460A9EC169384688433DD032
:1038800000200399884265D125468035701C58D0A8
:10389000FDF758FA0499401AB04231D8002E2FD0C3
:1038A0002068016849074CD5C069C043000548D469
:1038B00001202168C0020862EFF31081012080F32B
:1038C000108820680268FF23A1339A43026081F3C5
:1038D0001088EFF31081012080F31088206882683F
:1038E00052085200826081F310882020A860E860AE
:1038F000286100202871032005B0F0BD0120C0E739
:10390000EFF31081012080F3108820680368FF2204
:10391000A1329343036081F31088EFF310810120FB
:1039200080F310882068826852085200826081F318
:1039300010882020A860E86000202871032005B0CE
:10394000F0BD2068C1693846884306D0002003993D
:1039500088429BD0002005B0F0BD0120F7E70000B1
:1039600010B50248FEF7CCFA10BD0000002100207F
:1039700010B50248FEF7C4FA10BD000094210020E3
:1039800010B50348FEF7BCFA0248FEF7B9FA10BDBD
:1039900028220020BC2200200FB410B504A9074B38
:1039A00002AA039800F0ECF8044602A9002000F0F7
:1039B00083FC204610BC08BC04B01847B94200087C
:1039C0002021020C01D010211046020A01D010461D
:1039D0000839020901D01046091F820801D010469B
:1039E000891E420801D0881E7047081A704702E0FD
:1039F00008C8121F08C1002AFAD17047704700207A
:103A000001E001C1121F002AFBD17047F0B51FB4BD
:103A100086B00998089A030D0021024314D051483A
:103A2000514A1818504305141198012810981AD0BB
:103A3000281A401C00264D4F4D49009601910490D4
:103A4000002812DA444211E01198012449A3012808
:103A500001D11098C1430698119A84600360C26036
:103A600041600BB0F0BD4042E4E704462105002070
:103A70003F4A001C51410391029012E0E00707D039
:103A800032463B4601990098FCF7CAFD019100902F
:103A900032463B4610461946FCF7C2FD06460F4625
:103AA0006410002CEAD10498039B0028029A09991B
:103AB000089806DAFCF7B4FD019B009AFCF7B0FD0C
:103AC00005E0FCF789FB019B009AFCF785FB0446A7
:103AD0000E460022284BFCF72BFE03D80020C043E3
:103AE000014607E00022254B20463146FCF7E6FC64
:103AF000FCF7FEFD102409E0002C0ADB0A2200235B
:103B0000FCF70CFC079B30321A55641E02460A4330
:103B1000F2D11122641C079B121B1C19119B012B53
:103B200003D0012308430ED10AE0084304D011203A
:103B300010900020119077E71098151A6D1E0BE079
:103B40001098824202DD00236D1C03E0824201DAFC
:103B500000236D1E002BEED0069811998260C16083
:103B600030C07EE701FCFFFF104D00000000144054
:103B70000000F03F300000000000F0430000E03F94
:103B8000FFB597B00646002518E2252877D1002416
:103B90002746FD49049400E00443761C3278012056
:103BA000203A90400842F7D130782A280ED00222DD
:103BB000307801463039092916D804990A23594327
:103BC000303940181443761C0490F1E7189802C865
:103BD00004911890002904DA01204003044348426C
:103BE000049002200443761C30782E2814D104203F
:103BF00004437078761C2A2809D11898761C80C84E
:103C0000189009E00A214F43303FC719761C3078DD
:103C1000014630390929F5D930786C2810D006DCF6
:103C20004C281AD068280ED06A2817D104E07428CE
:103C300013D07A2812D110E00120400504430CE093
:103C40000121090501E0032109050C437178814236
:103C500003D1012000052418761C761C30781190C1
:103C600066280BD013DC58287DD009DC00287BD0D7
:103C70004528F6D04628F4D047281AD1A5E118E007
:103C8000632835D0642870D0652812D19DE1702852
:103C90006CD008DC6728F1D069287BD06E280DD065
:103CA0006F2806D1BAE073282ED0752871D07828F5
:103CB00059D01A9A199990476D1C7EE16002400F05
:103CC000022809D003280DD00428189801680DD0C7
:103CD0000D60001D189070E11898EA1701680D60DA
:103CE0004A60F6E7189801680D80F2E70D70F0E77A
:103CF00018986A4601781172001D189000205072C1
:103D000002A80090012005E0189802C81890002031
:103D10000091C04361070DD5002101E00199491CC4
:103D20000191B94212DA8142F8DB009A515C002914
:103D3000F4D10BE0002101E00199491C019181427D
:103D4000FADB019A0099895C0029F5D10199049860
:103D50001A9B471A21463846199A00F097FA01999A
:103D6000401945180BE04FE02CE113E04EE00098BD
:103D700000990078491C00911A9A19999047019866
:103D8000401E0190401CF2D1214638461A9B199AD8
:103D900010E137E00A200021009001916002410FFC
:103DA000022907D0189A01CA1892C217944603290B
:103DB00008D00AE01898C01DC108C90005C91891AB
:103DC000944607E000B2C2179446042902D140B2DB
:103DD000C1178C4600226146944506DA0A46002146
:103DE000404291418C462D2102E0210504D52B2132
:103DF0006A461173012103E0E10701D02021F7E7B2
:103E0000029155E00A200AE0102008E010200090FE
:103E10000021042004430191082703E00820002129
:103E2000019100906002410F022907D0189A01CA3F
:103E3000189200229446032908D008E01898C01D63
:103E4000C108C90005C91891944603E080B204294D
:103E500000D1C0B200210291210729D51199702902
:103E600006D0009A1021019B4A401A4305D00EE06B
:103E700040216A461173012108E06146014306D0E2
:103E800030216A4611731199517302210291009AEF
:103E90000821019B4A401A430AD16146014301D1DE
:103EA000610705D530216A46117301217F1E0291F9
:103EB0001199582904D035A10E910DA90D910DE04D
:103EC00037A1F9E76146019B009AFCF727FA0E9BA0
:103ED0008C469B5C0D9A521E0D92137061460143F5
:103EE000F0D10D9805A9081A20300190600703D57C
:103EF00001200004844300E001270198874201DD8E
:103F0000381A00E000200199009041180298091821
:103F10000498401A0490E00306D421461A9B199A8B
:103F2000049800F0B3F94519002706E003A81A9A8F
:103F3000C05D199990476D1C7F1C02988742F5DB84
:103F4000E0030CD521461A9B199A049800F09EF9BB
:103F5000451904E01A9A3020199990476D1C009970
:103F6000481E00900029F5DC08E00D980D990078B6
:103F7000491C0D911A9A199990476D1C0199481E78
:103F800001900029F1DC63E109280100303132336E
:103F90003435363738396162636465660000000085
:103FA000303132333435363738394142434445466F
:103FB0000000000000F05AF94519761C30780028FE
:103FC00000D0E2E528461BB0F0BD600700D406270C
:103FD0001898C01DC108C90048680A680831C30F95
:103FE000DB071891190001D09CA108E0210501D53B
:103FF0009BA104E0E10701D09AA100E09AA143004F
:1040000011985B08109165280CD006DC452809D072
:1040100046281DD0472841D141E0662818D067289E
:104020003CD13CE00021112F01DB112000E0781C85
:104030000191009008A911A8FFF7E8FC13990591D8
:104040000021119A15927F1C12980197009150E05F
:104050000120C00703900120019008A9009711A832
:10406000FFF7D4FC139A149905920022119B009239
:1040700012981593059A0192002901D0104602E08A
:10408000791C40180190381A01D5019804E040428B
:10409000401E0090781C0190C01B029043E0012F4D
:1040A00000DA01270021112F01DD112000E0384640
:1040B0000191009008A911A8FFF7A8FC1399059198
:1040C000119A0021129815920091019721070CD4A2
:1040D0000599B94201DB019900E00191012904DD54
:1040E000159A491E515C302906D0B84201DA011DEB
:1040F00005DA0121029115E00199491EEDE700283A
:1041000005DC0099411800910199091A03E0019A10
:10411000411C914200DD01910099401A401C02901F
:104120000120C0070390200706D40299019881421C
:1041300002DB0020C043029000206946C87707AF29
:10414000012103980337C907884224D00220119027
:104150002B201290039800280CDA404203902D2067
:10416000129007E00A210398FBF7BEFF30317F1E53
:10417000039039701199481E11900029F2DC0398C0
:104180000028EFD1791E129808703078202108405D
:104190004530BF1E387006A8C01BC01D0390109884
:1041A0000078002800D00120019941180298C0171A
:1041B0000918039809180498401A401E0490E00357
:1041C00006D421461A9B199A049800F05FF8451905
:1041D00010980078002803D01A9A199990476D1CFE
:1041E000E00324D521461A9B199A049800F04EF852
:1041F00045191CE00098002807DB009905988842C3
:1042000003DD1598405C199901E0199930201A9A3C
:10421000904700986D1C401C00900298401E029030
:10422000002804D11A9A2E20199990476D1C0199E3
:10423000481E01900029DDDC05E038781A9A7F1CC1
:10424000199990476D1C0399481E03900029F4DCCE
:1042500021461A9B199A0498ACE600002D00000034
:104260002B0000002000000000000000F8B504460C
:1042700000251E461746880404D405E03946202050
:10428000B0476D1C641EF9D52846F8BDFFB504463D
:10429000002581B01E46C80301D5302700E0202745
:1042A000880404D505E038460399B0476D1C641EA8
:1042B000F9D5284605B0F0BD0A68531C0B60107094
:1042C00070470000F0B51D4A9446002296461C4AED
:1042D000002921DD002407782346401C3D46DD40AF
:1042E000ED07ED0F0726F61AB54025435B1CDBB240
:1042F000ECB2082BF2D323025A400023140403D556
:1043000052006446624000E052005B1C92B2082BEF
:10431000F4DB491E0029DDDC002001460F24134692
:10432000CB40DB07DB0F651AAB400343491CC9B226
:1043300098B21029F3D371464840F0BD05800000C3
:10434000FFFF000086B0FCF70BFDFEF7A8FBFEF7B1
:1043500077F9BC4800248460C46004618461C4614E
:104360004B260462F60144620C2546604561B4495F
:1043700084620160FDF742FF002801D072B6FEE7BB
:104380000021B048FDF796FD002801D072B6FEE787
:104390000021AC48FDF76AFD002801D072B6FEE7A7
:1043A000A848FDF742FD002801D072B6FEE7A748F5
:1043B000A54901608460C46004618461C4610462D1
:1043C00044624B214561890184624160FDF716FF1B
:1043D000002801D072B6FEE79E489D498460C46003
:1043E00004618461C4610462446246604561846220
:1043F0000160FDF703FF002801D072B6FEE7974881
:1044000095498460C46004618461C461046244624B
:104410004660456184620160FDF7F0FE002801D02E
:1044200072B6FEE77D25ED0029468D48FBF78BFE31
:1044300029468C48FBF787FE29468B48FBF783FE0D
:1044400029468A48FBF77FFE29468948FBF77BFE11
:1044500029468848FBF777FE29468748FBF773FE15
:1044600029468648FBF76FFE012285497548FDF70E
:10447000D3FF012282497548FDF7CEFF0122804912
:104480007448FDF7C9FF01227D497448FDF7C4FF58
:104490007D4800940194029480277C4E8761092511
:1044A0004660C560774984600160FDF7EFFA002837
:1044B00001D072B6FEE76946734802970094FDF793
:1044C000AFFA002801D072B6FEE77248009401945A
:1044D000029446606E49846001606F498761C160E3
:1044E000FDF7D4FA002801D072B6FEE700946946C1
:1044F00068480294FDF794FA002801D072B6FEE7EE
:1045000067486649846004614660C56084610160F3
:10451000FDF7BCFA002801D072B6FEE76248614997
:104520008460046144614660C56084610160FDF798
:10453000ADFA002801D072B6FEE700945C48019401
:1045400002940394049405945849846001607F2187
:10455000C16044618461FF21C46101610121890757
:1045600044620162FDF7F6F8002801D072B6FEE75A
:104570000F20694608701E204870887001940394CB
:1045800000224B480494FDF7BDF9002801D072B613
:10459000FEE70120694608750820487510208875D7
:1045A0001720C875002205A94148FDF75BF90028CE
:1045B00001D072B6FEE73448FDF7E6FA3548FDF75C
:1045C000E3FA3748FDF7E0FA3748FDF7DDFAA520B2
:1045D0006946009408708320487028208870354B05
:1045E00003221E48FDF7BEFF334E344F344DFCF717
:1045F00019F9FEF761F8FEF7E1FA70780128F6D1B3
:1046000074700020395C2954401C1828FADB2D4AAC
:10461000182011182039097A2954401C1F28F8DB6A
:1046200029491F200A18203A52782A54401C282869
:10463000F8DB204B282222490248FDF793FFD6E7FA
:104640000038014000210020004400409421002057
:104650000048004028220020004C0040BC220020DE
:1046600010000020F8030020E1070020C90B002003
:10467000B20F00209A130020841700206C1B00202A
:104680005B1F002000100040D01F00209F8C000006
:10469000001400401C200020E70300000020004020
:1046A0006820002000440140B42000200028004081
:1046B000A41F0020FFFF0000561F0020A823002099
:1046C00080230020661F0020C0230020010002007C
:1046D0000400060008000A000C0010002000400042
:1046E0008000000101010103070100000804020429
:1046F00008010101000000000000000000000000AF
:1047000000000000000000000000000000000000A9
:104710000000000001000000020000000300000093
:104720000400000006000000070000000800000070
:104730000900000000000000000000000000000070
:104740000000000001000000020000000300000063
:104750000400000074470008000000207C1F0000D7
:10476000E4070008244900087C1F00208C08000092
:10477000FE39000842019204002EFF24F4000A0DC5
:1047800055534152542048797065727465726D6951
:104790006E616C20496E7465727275707473204519
:1047A00078616D706C650A0D01FF01FF01C5002B7A
:1047B000FF0A0D5553415254204879706572746553
:1047C000726D696E616C20496E7465727275707479
:1047D00073204578616D706C650A0D01FF01FF0162
:1047E000C6002BFF0A0D555341525420487970657D
:1047F000727465726D696E616C20496E7465727257
:1048000075707473204578616D706C650A0D01FFD9
:1048100001FF01C5002BFF0A0D555341525420489A
:10482000797065727465726D696E616C20496E7421
:1048300065727275707473204578616D706C650A6D
:104840000D01FF01FF01C6002BFF0A0D5553415218
:10485000542048797065727465726D696E616C2060
:10486000496E7465727275707473204578616D70ED
:104870006C650A0D01FF01FF01C5002BFF0A0D55F4
:10488000534152542048797065727465726D696E37
:10489000616C20496E74657272757074732045780E
:1048A000616D706C650A0D01FF01FF01C7002BFFF0
:1048B0000A0D5553415254204879706572746572DF
:1048C0006D696E616C20496E746572727570747377
:1048D000204578616D706C650A0D01FF01FF01C50F
:1048E000002BFF0A0D5553415254204879706572D0
:1048F0007465726D696E616C20496E746572727553
:10490000707473204578616D706C650A0D01FF014C
:10491000FF01C804140101017A0D0A6572726F72F9
:044920000D0A00007C
:04000005080000B936
:00000001FF
